:100000000C9463000C948B000C948B000C948B006C
:100010000C948B000C948B000C948B000C948B0034
:100020000C948B000C948B000C948B000C948B0024
:100030000C948B000C948B000C948B000C948B0014
:100040000C9403060C948B000C9434050C946605F8
:100050000C948B000C948B000C948B000C948B00F4
:100060000C948B000C948B0000000008000201002F
:100070000003040700000000000000000102040863
:100080001020408001020408102001020408102002
:10009000040404040404040402020202020203032E
:1000A00003030303000000002300260029000000D2
:1000B0000000250028002B0000000000240027007D
:1000C0002A00AF00960511241FBECFEFD8E0DEBF97
:1000D000CDBF11E0A0E0B1E0E6EFFEE002C0059088
:1000E0000D92A433B107D9F722E0A4E3B1E001C037
:1000F0001D92A235B207E1F710E0C3E6D0E004C0DC
:100100002197FE010E947307C136D107C9F70E94EB
:10011000F4050C9479070C940000CF93DF93C4E3AB
:10012000D1E026E040E855E260E070E08881998106
:100130000E94CF0440E157E260E070E0888199813D
:100140000E94ED050E944D066A837B838C839D830C
:100150008DE391E0DF91CF910C94CC030895EF9261
:100160000F9384E0E82E04E020E031E044E051E029
:1001700068E071E08DE391E00E94D800E4E3F1E0F3
:100180008CEA91E09183808382E390E09783868379
:1001900081E080870F91EF900895862F0C942807B7
:1001A000862F642F0C94F906862F642F0C94BD06BD
:1001B0004F925F926F927F928F929F92AF92BF9277
:1001C000CF92DF92EF920F93CF93DF93EC016B010D
:1001D0004A01590102960E94ED038CE191E0998356
:1001E00088832E018CE1480E511C3E0188E5680E83
:1001F000711CC2010E94ED0386E0480E511C46149A
:100200005704B9F7FE01EE59FF4F91828082329672
:10021000B182A082329600833196E0823797D182F4
:10022000C08238968AE090E091838083329684EF92
:1002300091E09183808333961182108271971082AE
:10024000118212821382C459DF4F1882DF91CF913D
:100250000F91EF90DF90CF90BF90AF909F908F90D5
:100260007F906F905F904F9008952F923F924F92A2
:100270005F926F927F928F929F92AF92BF92CF9236
:10028000DF92EF92FF920F931F93CF93DF93CDB73F
:10029000DEB728970FB6F894DEBF0FBECDBF9887A4
:1002A0008F8310E05C0126E6A20EB11C7C0132E6D1
:1002B000E30EF11CD5018C911817B8F0312CEF81A9
:1002C000F885E959FF4FFC83EB83CF80D884F4E6AF
:1002D000CF0ED11C412C512C320143942F813885F3
:1002E0002E593F4F3E832D8360C0F701A081B1811D
:1002F000A10FB11DEF81F88580819181FC012081E2
:10030000318142E06C918F819885F90109951F5FD9
:10031000D1CF022D10E0AD81BE818D919C91DC0189
:10032000A00FB11F0480F581E02D6C918F8198851D
:100330000995000F111FEF81F885E00FF11F892B40
:1003400009F06FC08085918529813A81822B932B9A
:10035000918780872394D5018C91AF81B885ED91E9
:10036000FC912816B0F2D6018D919C91DC01AE0D66
:10037000BF1D0280F381E02D41E06C918F81988553
:100380000995F60180819181DC01AE0DBF1DEF81E1
:10039000F88580819181FC012081318140E06C9160
:1003A0008F819885F90109953394AB81BC818C913B
:1003B0003816E0F5E32CF12CF601A081B181AE0DE9
:1003C000BF1DEF81F88580819181FC012081318101
:1003D00041E06C918F819885F9010995F601A08122
:1003E000B181AE0DBF1DEF81F88580819181FC0147
:1003F0002281338140E06C918F819885F9010995C4
:10040000D301C201032C04C0880F991FAA1FBB1F70
:100410000A94D2F79A8389834C0180949094212C7A
:100420009ACF808591858821992192CF28960FB601
:10043000F894DEBF0FBECDBFDF91CF911F910F911A
:10044000FF90EF90DF90CF90BF90AF909F908F90F4
:100450007F906F905F904F903F902F900895FC0198
:1004600080E090E0258D368D2617370739F001960C
:1004700036968A309105B1F78FEF9FEF0895DC0132
:1004800026E0629FA00DB11D112490965C934E93BF
:100490005F9721E091962C939197FC01E459FF4FCF
:1004A000208131960190F081E02D222331F03097A8
:1004B00049F0611107C0DC0102C0309719F05C9669
:1004C0008C9109940895CF92DF92EF92FF920F934F
:1004D0001F93CF93DF93EC01162F042FFC0186E0CE
:1004E000689FE00DF11D112411A2878D90A181302C
:1004F0009105D1F048F08230910591F1039709F010
:100500003FC040E050E030C04423D1F141E050E032
:10051000CE010E943F020E944D06C85ADF4F6883F9
:1005200079838A839B832CC00E944D06FE01E85A82
:10053000FF4FC080D180E280F380AB01BC014C1939
:100540005D096E097F09729680819181A0E0B0E01B
:1005500084179507A607B70718F442E050E004C0D7
:1005600001110EC043E050E0612FCE01DF91CF9129
:100570001F910F91FF90EF90DF90CF900C943F026E
:10058000DF91CF911F910F91FF90EF90DF90CF906F
:1005900008952F923F924F925F926F927F928F9227
:1005A0009F92AF92BF92CF92DF92EF92FF920F9302
:1005B0001F93CF93DF9300D000D000D0CDB7DEB72C
:1005C0009E838D837C015C012CE3A20EB11CFC0197
:1005D0008FEF9FEF278D30A1232B21F4148E968F60
:1005E000858F11A23696AE16BF06A1F7512C8D81CC
:1005F0009E818A599F4F9A838983AD81BE81A95973
:10060000BF4FBC83AB836D807E80B0E66B0E711CE8
:1006100086E0282EE981FA818081581608F05AC0B8
:10062000412C0D811E81050D111D050D111D085F49
:100630001F4FAB81BC818C90481408F049C0F80171
:10064000C080D180042C02C0D694C7940A94E2F7EB
:10065000FC2DF1703F2E589C40011124840C911CFC
:10066000B4018D819E810E942F0297FD05C0432D0C
:10067000682F8D819E8121C0019641F5C0FE26C064
:10068000ED81FE8160E070E0848D811119C0D3019D
:10069000ED91FC91E80DF91D8081269EF001279EC9
:1006A000F00D11242D813E81E20FF31F848F968E71
:1006B000858E10A2178E432DC9010E94630206C0C9
:1006C0006F5F7F4F36966A307105F1F64394B1CF74
:1006D0005394A0CF80E0D70191969C91911181E035
:1006E000B6E0EB0EF11CAE14BF04A9F726960FB6C8
:1006F000F894DEBF0FBECDBFDF91CF911F910F9158
:10070000FF90EF90DF90CF90BF90AF909F908F9031
:100710007F906F905F904F903F902F900895CF9271
:10072000DF92EF92FF920F931F93CF93DF93EC0131
:100730000E944D068E01045A1F4FF801C080D180DF
:10074000E280F380AB01BC014C195D096E097F09A1
:100750003C9680819181A0E0B0E084179507A607C0
:10076000B70778F4CE010E943501CE010E94C9027C
:10077000C82F0E944D06F8016083718382839383A2
:1007800001C0C0E08C2FDF91CF911F910F91FF909E
:10079000EF90DF90CF9008950F931F93CF93DF9347
:1007A000EC018C0104591F4F81E0F8018083CE01D8
:1007B0000E948F03882349F089A1882331F08F8D0F
:1007C00098A1019711F48C8D03C0F801108280E08C
:1007D000DF91CF911F910F910895FC011082148237
:1007E000138215820895FC01918D228D892F90E04E
:1007F000805C9F4F821B91098F7399270895FC019C
:10080000918D828D981731F0828DE80FF11D858DC5
:1008100090E008958FEF9FEF0895FC01918D828DF8
:10082000981761F0828DDF01A80FB11D5D968C9144
:10083000928D9F5F9F73928F90E008958FEF9FEF4F
:100840000895FC01538D448D252F30E0842F90E0D6
:10085000821B930B541710F0CF96089501970895BB
:100860008CE895E0892B49F080E090E0892B29F015
:100870000E948C0581110C9400000895FC01848D68
:10088000DF01A80FB11DA35ABF4F2C91848D90E0BA
:1008900001968F739927848FA689B7892C93A08995
:1008A000B1898C91837080648C93938D848D98131F
:1008B00006C00288F389E02D80818F7D80830895B2
:1008C000EF92FF920F931F93CF93DF93EC0181E0A0
:1008D000888F9B8D8C8D981305C0E889F98980815C
:1008E00085FD26C0F62E0B8D10E00F5F1F4F0F7396
:1008F0001127E02E8C8DE8120CC00FB607FCFACF42
:10090000E889F989808185FFF5CFCE010E943E04F8
:10091000F1CF8B8DFE01E80FF11DE35AFF4FF082FE
:100920009FB7F8940B8FEA89FB89808180620AC0A7
:100930009FB7F894EE89FF896083E889F9898081FF
:100940008370806480839FBF81E090E0DF91CF91CE
:100950001F910F91FF90EF900895CF93DF93EC01DB
:10096000888D8823C9F0EA89FB89808185FD05C0CF
:10097000A889B9898C9186FD0FC00FB607FCF5CF09
:10098000808185FFF2CFA889B9898C9185FFEDCF51
:10099000CE010E943E04E7CFDF91CF910895CF9220
:1009A000DF92EF92FF921F93CF93DF93EC016A01E6
:1009B0007B01122FE889F98982E080834115514E2D
:1009C00061057105B1F060E079E08DE390E0A70189
:1009D00096010E945107DA01C9010197A109B109E5
:1009E000B695A795979587959C01211580E13807C5
:1009F000A8F0E889F989108260E874E88EE190E057
:100A0000A70196010E945107DA01C9010197A109C6
:100A1000B109B695A795979587959C01EC85FD85BD
:100A20003083EE85FF852083188EEC89FD89108345
:100A3000EA89FB89808180618083EA89FB898081E2
:100A400088608083EA89FB89808180688083EA8965
:100A5000FB8980818F7D8083DF91CF911F91FF90F3
:100A6000EF90DF90CF9008951F920F920FB60F92E4
:100A700011242F938F939F93EF93FF93E091BC01E9
:100A8000F091BD018081E091C201F091C30182FD2E
:100A900012C090818091C5018F5F8F732091C60134
:100AA000821751F0E091C501F0E0E455FE4F958FBB
:100AB0008093C50101C08081FF91EF919F918F913B
:100AC0002F910F900FBE0F901F9018951F920F92AD
:100AD0000FB60F9211242F933F934F935F936F9311
:100AE0007F938F939F93AF93BF93EF93FF938CEA82
:100AF00091E00E943E04FF91EF91BF91AF919F91D1
:100B00008F917F916F915F914F913F912F910F90B6
:100B10000FBE0F901F9018958CEA91E00E94F3038E
:100B200021E0892B09F420E0822F0895ECEAF1E01E
:100B30001382128288EE93E0A0E0B0E08483958374
:100B4000A683B78386E291E09183808385EC90E071
:100B50009587848784EC90E09787868780EC90E087
:100B6000918B808B81EC90E0938B828B82EC90E078
:100B7000958B848B86EC90E0978B868B118E128EF2
:100B8000138E148E0895CF92DF92EF92FF920F93FF
:100B90001F93CF93DF936C017A018B01C0E0D0E00B
:100BA000CE15DF0581F0D8016D918D01D601ED9153
:100BB000FC910190F081E02DC6010995892B11F07F
:100BC0002196EECF7E01C701DF91CF911F910F914A
:100BD000FF90EF90DF90CF900895FC014483558300
:100BE00066837783089508950E9459060E94F3054D
:100BF0000E948D00C0E3D4E00E94AE002097E1F394
:100C00000E943004F9CF1F920F920FB60F92112459
:100C10002F933F938F939F93AF93BF9380914A02FB
:100C200090914B02A0914C02B0914D02309149023B
:100C300023E0230F2D3720F40196A11DB11D05C01F
:100C400026E8230F0296A11DB11D2093490280932F
:100C50004A0290934B02A0934C02B0934D028091B4
:100C60004E0290914F02A0915002B0915102019614
:100C7000A11DB11D80934E0290934F02A09350028C
:100C8000B0935102BF91AF919F918F913F912F915E
:100C90000F900FBE0F901F9018952FB7F89460918A
:100CA0004A0270914B0280914C0290914D022FBFED
:100CB0000895789484B5826084BD84B5816084BDD4
:100CC00085B5826085BD85B5816085BDEEE6F0E0C5
:100CD000808181608083E1E8F0E010828081826021
:100CE0008083808181608083E0E8F0E080818160A2
:100CF0008083E1EBF0E0808184608083E0EBF0E0D2
:100D0000808181608083EAE7F0E080818460808375
:100D1000808182608083808181608083808180681F
:100D200080831092C1000895833081F028F48130CF
:100D300099F08230A1F008958730A9F08830B9F099
:100D40008430D1F4809180008F7D03C08091800039
:100D50008F7780938000089584B58F7702C084B523
:100D60008F7D84BD08958091B0008F7703C08091FE
:100D7000B0008F7D8093B0000895CF93DF9390E013
:100D8000FC01E458FF4F2491FC01E057FF4F849190
:100D9000882361F190E0880F991FFC01E854FF4F10
:100DA000C591D491FC01E255FF4FA591B491611119
:100DB00009C09FB7F8948881209582238883EC919D
:100DC0002E230BC0623061F49FB7F8948881322FD4
:100DD000309583238883EC912E2B2C939FBF06C0E4
:100DE0008FB7F894E8812E2B28838FBFDF91CF91A6
:100DF00008951F93CF93DF93282F30E0F901E8592E
:100E0000FF4F8491F901E458FF4FD491F901E05765
:100E1000FF4FC491CC23C1F0162F81110E9494067C
:100E2000EC2FF0E0EE0FFF1FE255FF4FA591B491BC
:100E30009FB7F894111104C08C91D095D82302C0AB
:100E4000EC91DE2BDC939FBFDF91CF911F91089532
:100E5000CF93DF93282F30E0F901E859FF4F8491B9
:100E6000F901E458FF4FD491F901E057FF4FC491C5
:100E7000CC2391F081110E949406EC2FF0E0EE0F4C
:100E8000FF1FEC55FF4FA591B491EC91ED2381E04C
:100E900090E021F480E002C080E090E0DF91CF910B
:100EA0000895A1E21A2EAA1BBB1BFD010DC0AA1FAB
:100EB000BB1FEE1FFF1FA217B307E407F50720F0C3
:100EC000A21BB30BE40BF50B661F771F881F991F3E
:100ED0001A9469F760957095809590959B01AC0187
:100EE000BD01CF010895EE0FFF1F0590F491E02D95
:060EF0000994F894FFCF05
:100EF6000706050403020100303132333435363734
:100F0600383941424344454600000000D400D00031
:100F1600CD00000000006004C3052104AD04F30306
:040F26000D04FF03B4
:00000001FF
