:100000000C9464000C948C000C948C000C948C0068
:100010000C948C000C948C000C948C000C948C0030
:100020000C948C000C948C000C948C000C948C0020
:100030000C948C000C948C000C948C000C948C0010
:100040000C94640F0C948C000C94160E0C94480EB7
:100050000C948C000C948C000C948C000C948C00F0
:100060000C948C000C948C0000000008000201002D
:100070000003040700000000000000000102040863
:100080001020408001020408102001020408102002
:10009000040404040404040402020202020203032E
:1000A00003030303000000002300260029000000D2
:1000B0000000250028002B0000000000240027007D
:1000C0002A00A805780ECE0611241FBECFEFD8E077
:1000D000DEBFCDBF11E0A0E0B1E0E2EEF7E202C08A
:1000E00005900D92A238B107D9F723E0A2E8B1E05C
:1000F00001C01D92A033B207E1F710E0C3E6D0E0E3
:1001000004C02197FE010E94EE11C136D107C9F744
:100110000E944D0F0C94E4130C940000CF93DF93D6
:10012000EB010E94CE138883CE01DF91CF91089519
:10013000FF920F931F93CF93DF93EC01F62E08816C
:100140001981C8010E94CE13F81621F06F2DC80145
:100150000E94D613CE01DF91CF911F910F91FF9096
:1001600008958091630290916402892B11F460E0FC
:1001700001C061E081E10E9437118091630290919A
:100180006402019711F460E001C061E082E10E9425
:10019000371180916202882311F060E001C061E0B4
:1001A00083E10C9437118091600290916102892B58
:1001B00011F460E001C061E08DE00E943711809190
:1001C000600290916102019711F460E001C061E06A
:1001D00080E10C943711DF92EF92FF920F931F93FF
:1001E000CF93DF9300D01F92CDB7DEB782E090E0CF
:1001F0000E945C0F0E94600F61E08DE00E94FB1086
:1002000061E080E10E94FB1061E08DE00E94371107
:1002100061E080E10E94371161E081E10E94FB1002
:1002200061E082E10E94FB1061E083E10E94FB102B
:1002300061E081E10E94371161E082E10E943711A3
:1002400061E083E10E94371126E040E855E260E07A
:1002500070E08091D6019091D7010E94B10D40E1EC
:1002600057E260E070E08091D6019091D7010E9442
:10027000FF0E0E94AE0F6093D8017093D901809356
:10028000DA019093DB0186ED91E00E94FE0885E69D
:1002900092E09093BC018093BB018DE291E090933A
:1002A000BE018093BD0189E48093BF01CE01019618
:1002B0000E94D00CBE016F5F7F4F8091B80190917A
:1002C000B9010E94C10C86ED91E09093C501809325
:1002D000C40188E391E09093C7018093C60180E157
:1002E000D82ED092C9019FE0E92EE092CA018CE09D
:1002F0008093CB012DE0F22EF092CC010EE0009322
:10030000CD0111E01093C8018AE48093CE011093CF
:10031000CF0184E10E945610BC01990F880B990B04
:100320000E942A0F8091C2019091C30190936402B0
:10033000809363028091C8018093620287E291E01A
:1003400090939B0180939A0185E580939C0188E5B9
:1003500080939D01D092B401E092B501F092B60174
:100360000093B701E0919F01F091A001808181117C
:100370000DC0E091A101F091A20181E291E0918391
:100380008083E0919F01F091A0011083E0919F0193
:10039000F091A001818181110EC0E091A101F09145
:1003A000A2018BE191E093838283E0919F01F09120
:1003B000A00181E08183E091A701F091A8018081F3
:1003C000811114C0E091A901F091AA0181E291E0AC
:1003D00091838083E091AB01F091AC018FE2808347
:1003E000E091A701F091A80181E08083E091A7014D
:1003F000F091A8018181811114C0E091A901F091CF
:10040000AA0185E191E093838283E091AB01F091B1
:10041000AC0180E38183E091A701F091A80181E024
:10042000818383E491E09093A4018093A30190934E
:10043000AE018093AD0180919801909199018F3F19
:100440002FEF920769F065EA71E00E948E008091BB
:100450009801909199016FEA71E001960E948E00D7
:1004600081E0809397018091B2019091B3019093C4
:1004700061028093600210929301109292010E9497
:10048000B1000E94D3000F900F900F90DF91CF9199
:100490001F910F91FF90EF90DF900895CF93DF931E
:1004A000EC016A8170E080E090E00E94320F688782
:1004B0008B819C819C0143E0649F200D311D1124A0
:1004C000B901888199810E94C10C8E859F85892BF5
:1004D00089F06B898C859D850E9409078885EE854A
:1004E000FF85E80FF11D60818C859D85DF91CF919F
:1004F0000C940907DF91CF910895CF93DF93EC011E
:100500006A8170E080E090E00E94320F6C8F8B8DEA
:10051000EF89F88DE80FF11D6081888199810E9433
:1005200009078B8D2D899E89E22FF92FE80FF11D88
:10053000E80FF11D8C8D0190F081E02DE80FF11D89
:10054000608188819981DF91CF910C9409070F9385
:100550001F93CF93DF9300D0CDB7DEB78C01DC01C2
:100560005E968D919C915F97009761F551968C9165
:1005700051978F5F51968C9351971A969C911A9729
:10058000891302C051961C92F801848195818F3F96
:10059000FFEF9F0749F0D80151966C919A838983A8
:1005A000CE0101960E949800F80181890784F089A4
:1005B000E02DE80FF11D6081D8018D919C910E9482
:1005C00054092EC0019761F5F801838D8F5F838FE9
:1005D0009289891301C0138ED80114968D919C9134
:1005E00015978F3FBFEF9B0749F0F801638D019688
:1005F0009A838983CE0101960E949800D8015B9668
:100600008C915B975996ED91FC915A97E80FF11DEB
:1006100060818D919C910E945409C8010E947D02C5
:100620000F900F90DF91CF911F910F9108951F931D
:10063000CF93DF93FC011381112309F45CC0EC011B
:100640008085861313C0868D978D009741F481E0D5
:1006500090E0978F868F61A1808191813CC0019746
:1006600009F049C0178E168E60A127C081856817D2
:10067000E9F1728120E030E0422F2717D8F5C90157
:100680002F5F3F4FEE81FF81E80FF91F5081651307
:10069000F3CF2E8D3F8D2115310591F429894D859C
:1006A0003E85E42FF32FE20FF11DE20FF11D2081B3
:1006B0003181F901E80FF91F60818881998113C0A8
:1006C00021303105C1F42C8D88819981421309C0F4
:1006D00021E02D8F6AA10E945409CE010E947D0263
:1006E0000AC01D8E6BA10E94540905C0CF010E9453
:1006F000A70201C010E0812FDF91CF911F910895D3
:100700002F923F924F925F926F927F928F929F9221
:10071000AF92BF92CF92DF92EF92FF920F931F930F
:10072000CF93DF9300D01F92CDB7DEB786ED91E077
:100730000E946B080E94AE0F1B012C0180918A0160
:10074000811113C020928201309283014092840172
:1007500050928501109286011092870110928801B3
:100760001092890181E080938A019101A20160E0E9
:1007700070E080E090E0A0908201B0908301C09092
:100780008401D0908501E0908601F090870100916E
:100790008801109189010E94DC11203C344D4140B8
:1007A0005105610571058105910509F008F452C0F4
:1007B00020928201309283014092840150928501FF
:1007C000109286011092870110928801109289017F
:1007D00010929301109292011092C3011092C201E3
:1007E000CE0101960E94D00CBE016F5F7F4F8091B9
:1007F000B8019091B9010E94C10C8091C201909101
:10080000C30190936402809363028091C801809336
:10081000620261E083E10E94371161E082E10E949F
:10082000371160E081E10E9437111092B3011092FC
:10083000B201109261021092600261E080E10E94B8
:10084000371160E08DE00E9437116BE086ED91E09A
:100850000E94540981EF91E00E947E0C182F88239A
:1008600009F460C120928201309283014092840198
:100870005092850110928601109287011092880192
:10088000109289018091920190919301892B51F4EA
:100890000E94B1000E94D30081E090E09093930108
:1008A00080939201E091B801F091B901309709F479
:1008B000B0C08091BF01181339C08091C2019091DE
:1008C000C3010097E9F481E090E09093C301809325
:1008D000C2018091C6019091C701892B61F080917E
:1008E000C801882341F06091CA018091C4019091B0
:1008F000C5010E94540988EB91E00E944E02E1C0BC
:10090000019709F0DEC01092C3011092C2018091DC
:10091000C6019091C701892B09F4D3C08091C80109
:10092000882309F4CEC06091C9014FC08091C401F1
:100930009091C501009721F02091CF0121110AC0AB
:100940004091BA0150E0A091BD01B091BE0120E0FC
:1009500030E010C02091CE011213F2CF9091C80167
:1009600081E089278093C801ACC06D91161731F0E2
:100970002F5F3F4F24173507C4F34BC04091C2018E
:100980005091C3014115510529F5822E022E000C0C
:1009900099086091BB017091BC0183E02802600D51
:1009A000711D1124CF010E94C10C8091C60190914C
:1009B000C701009709F485C02091C801222309F4DA
:1009C00080C0FC01E80DF91D60818091C401909107
:1009D000C5011CC04130510509F073C03091C00100
:1009E0004091C6015091C701321309C021E0209304
:1009F000C101452B09F47FCF6091CC017ACF1092D1
:100A0000C101452B09F45DC06091CD010E945409DC
:100A100058C0612F84E991E00E9417038823E1F117
:100A20008091920190919301019729F11092C30155
:100A30001092C201CE0101960E94D00CBE016F5FE0
:100A40007F4F8091B8019091B9010E94C10C8091B3
:100A5000C2019091C30190936402809363028091DC
:100A6000C801809362020E94B10081E090E09093FF
:100A70009301809392018091B2019091B3012091F2
:100A80006002309161022817390731F090936102BA
:100A9000809360020E94D3001E3429F486ED91E019
:100AA0000E940C0906C01F34E9F586ED91E00E9412
:100AB00030098823B9F161E186ED91E00E94540983
:100AC00031C08091920190919301029781F0109230
:100AD000B3011092B20110926102109260020E9462
:100AE000D30082E090E090939301809392018091F3
:100AF000C2019091C30120916302309164022817D2
:100B0000390731F090936402809363020E94B10030
:100B10008091C80190916202981721F0809362023F
:100B20000E94B1000F900F900F90DF91CF911F9115
:100B30000F91FF90EF90DF90CF90BF90AF909F907C
:100B40008F907F906F905F904F903F902F9008957F
:100B5000EF920F931F93CF9320E040E060E085E693
:100B600092E00E94CB0C24E640E06CE388E692E041
:100B70000E94CB0C2FE040E064E68BE692E00E94FE
:100B8000CB0C20E040E064E68EE692E00E94CB0CC5
:100B900020E044E164E681E792E00E94CB0C20E093
:100BA00044E664E684E792E00E94CB0C20E044E651
:100BB00060E087E792E00E94CB0C24E144E664E128
:100BC0008AE792E00E94CB0C24E642E360E08DE7E6
:100BD00092E00E94CB0C24E640E060E080E892E0E6
:100BE0000E94CB0C24E644E66AE583E892E00E948A
:100BF000CB0C85E0E82E05E02AE031E04FE051E043
:100C00006DE471E081EF91E00E948A0900E010E05C
:100C1000980140ED57E060E070E086ED91E00E94C1
:100C2000EA062BE04AE069E080ED91E00E94A50C25
:100C300080ED91E09093B9018093B8018BE08093AF
:100C4000BA011092BC011092BB011092BE01109229
:100C5000BD011092BF011092C0011092C10110920B
:100C6000C3011092C2011092C5011092C4011092EA
:100C7000C7011092C6011092C8011092C9011092CA
:100C8000CA011092CB011092CC011092CD011092AA
:100C9000CE011092CF0186ED91E090939501809363
:100CA000940186E0809396011092970182E090E093
:100CB000909399018093980110929B0110929A0150
:100CC00010929C0110929D01C2E0C0939E010E946F
:100CD0005E0F9093A00180939F0184E090E00E94BA
:100CE0005E0F9093A2018093A1011092A401109233
:100CF000A3011092A501C093A60182E090E00E949A
:100D00005E0F9093A8018093A70184E090E00E9479
:100D10005E0F9093AA018093A90182E090E00E9467
:100D20005E0F9093AC018093AB011092AE011092D4
:100D3000AD011092AF011092B0011092B10110926A
:100D4000B3011092B2011092B4011092B501109249
:100D5000B6011092B7012091A7013091A80180E05F
:100D600090919E01891730F4F901E80FF11D10826E
:100D70008F5FF6CF20919F013091A00180E090918C
:100D8000A601891730F4F901E80FF11D10828F5F79
:100D9000F6CFCF911F910F91EF9008958091A1010F
:100DA0009091A201009711F00E94620F8091A90119
:100DB0009091AA01009711F00E94620F8091AB01FF
:100DC0009091AC01009711F00E94620F86ED91E0C6
:100DD0000C942F070F93FC0186E892E091838083A7
:100DE00082E390E09783868381E080871286118674
:100DF00014861386158616861786108A118A128A1B
:100E0000138A148A458B568B678B708F028F0F91D4
:100E100008951F93CF93DF93EC01162F89859A8550
:100E2000892B59F483E090E00E945C0FFC01118251
:100E3000108212839A8789870CC083E090E00E9419
:100E40005C0FFC01118210821283EB85FC8591837B
:100E500080839C878B87DF91CF911F910895CF93DB
:100E6000DF93EC0189859A85009741F0FC01208190
:100E700031813A8729870E94600FF4CFDF91CF91AB
:100E80000895AF92BF92CF92DF92EF92FF920F93AD
:100E90001F93CF93DF93CDB7DEB72A970FB6F894A1
:100EA000DEBF0FBECDBF8C018AE0B82ECE01019609
:100EB0007C016E0198E0C90ED11CAA24A394D8012C
:100EC0008D919C91DC01ED91FC910084F185E02DE8
:100ED00009950A970CF468C0F7018B2D11928A9539
:100EE000E9F741E050E0B701D8018D919C910E9453
:100EF000050F8130B1F589818E3799F749E050E0CF
:100F0000BE016E5F7F4FF801808191810E94050FC5
:100F10008F5F8A3048F18A818F3F49F58B81863017
:100F200031F58A858F3E19F5FE01329680E090E01A
:100F30002191820F911DCE16DF06D1F791958195F3
:100F4000910928853985322723273227821793076D
:100F500089F42C818E819F81982789272F3369F00E
:100F6000AECF80E090E012C081E890E00FC082E850
:100F700090E00CC083E890E009C081FF04C0D80174
:100F80001896AC929CCF80FDFACF99CF892B09F4AB
:100F900096CFF80180819181DC01ED91FC91008474
:100FA000F185E02D09958BCF2A960FB6F894DEBF18
:100FB0000FBECDBFDF91CF911F910F91FF90EF90AA
:100FC000DF90CF90BF90AF9008958F929F92AF9295
:100FD000BF92CF92DF92EF92FF920F931F93CF9326
:100FE000DF93CDB7DEB72A970FB6F894DEBF0FBEFA
:100FF000CDBF8C016901CE0101967C018AE0D70149
:101000001D928A95E9F78EE789838FEF8A8386E0C0
:101010008B838FEE8A876C835E834F83FE013296CB
:101020009E01285F3F4F80E090E04191840F911D29
:101030002E173F07D1F79195819591099887898758
:101040000E94AE0FF80182809380A480B580AB012E
:10105000BC01481959096A097B0986819781A0E07A
:10106000B0E0481759076A077B0718F0808581119F
:101070000AC0C8010E94410761E070E080E090E092
:101080000E94DF0FDDCFD782C68280819181DC0193
:10109000ED91FC910280F381E02D4AE050E0B70130
:1010A00009950E94AE0FF801628373838483958350
:1010B0002A960FB6F894DEBF0FBECDBFDF91CF9159
:1010C0001F910F91FF90EF90DF90CF90BF90AF9066
:1010D0009F908F9008952F923F924F925F926F92C0
:1010E0007F928F929F92AF92BF92CF92DF92EF92B8
:1010F000FF920F931F93CF93DF93FC0121853285DD
:10110000232B09F461C0EC010E94AE0F4B015C017E
:101110009B01A50160E070E080E090E0AD84BE84BA
:10112000CF84D888E988FA880B891C890E94DC1151
:10113000F22FE32F0D891E892F89388D180129017F
:101140002F2F3E2F51016201E12CF12C00E010E025
:101150000E94E511C9F1C0F10E94AE0F8B019C0104
:101160006D871E872F87388B198A1A8A1B8A1C8ADB
:10117000E985FA85428150E022E330E062E1CE0168
:101180000E94E50789859A852B853C858217930700
:1011900011F41C861B86FC01208131813A87298746
:1011A000DF91CF911F910F91FF90EF90DF90CF9043
:1011B000BF90AF909F908F907F906F905F904F9077
:1011C0003F902F900C94600FDF91CF911F910F9162
:1011D000FF90EF90DF90CF90BF90AF909F908F9057
:1011E0007F906F905F904F903F902F900895462F83
:1011F00050E022E330E066E00C94E507CF93DF9304
:10120000EC018A8D90E00E94CE13898F682FCE0169
:10121000DF91CF910C94F7080F931F93CF93DF9337
:1012200000D0CDB7DEB7FC01618D683189F08C014B
:101230006F5F618F0E94F708F801618D828D90E0E9
:101240009A838983CE0101960E94980081E001C0B3
:1012500080E00F900F90DF91CF911F910F91089533
:101260000F931F93CF93DF9300D0CDB7DEB7FC0170
:10127000618D613089F08C016150618F0E94F708A7
:10128000F801618D828D90E09A838983CE01019669
:101290000E94980081E001C080E00F900F90DF91E4
:1012A000CF911F910F9108950F931F93CF93DF93C9
:1012B000EC01462F50E022E330E062E10E94E507B6
:1012C0000E94AE0F8B019C010D871E872F87388BE4
:1012D000198A1A8A1B8A1C8A89859A85009741F087
:1012E000FC01208131813A8729870E94600FF4CF69
:1012F0001C861B86DF91CF911F910F910895862F39
:101300000C946611862F642F0C943711862F642F4E
:101310000C94FB104F925F926F927F928F929F92EC
:10132000AF92BF92CF92DF92EF920F93CF93DF9362
:10133000EC016B014A01590102960E949F0C8AE65A
:1013400091E0998388832E018CE1480E511C3E0167
:1013500088E5680E711CC2010E949F0C86E0480E51
:10136000511C46145704B9F7FE01EE59FF4F918204
:1013700080823296B182A082329600833196E082DA
:101380003797D182C08238968AE090E0918380833B
:10139000329684EF91E0918380833396118210829C
:1013A00071971082118212821382C459DF4F188202
:1013B000DF91CF910F91EF90DF90CF90BF90AF90E2
:1013C0009F908F907F906F905F904F9008952F9295
:1013D0003F924F925F926F927F928F929F92AF92C5
:1013E000BF92CF92DF92EF92FF920F931F93CF9312
:1013F000DF93CDB7DEB728970FB6F894DEBF0FBEE8
:10140000CDBF98878F8310E05C0126E6A20EB11C49
:101410007C0132E6E30EF11CD5018C911817B8F06F
:10142000312CEF81F885E959FF4FFC83EB83CF80A6
:10143000D884F4E6CF0ED11C412C512C32014394B8
:101440002F8138852E593F4F3E832D8360C0F70191
:10145000A081B181A10FB11DEF81F88580819181BB
:10146000FC012081318142E06C918F819885F901E6
:1014700009951F5FD1CF022D10E0AD81BE818D9106
:101480009C91DC01A00FB11F0480F581E02D6C91CF
:101490008F8198850995000F111FEF81F885E00F66
:1014A000F11F892B09F06FC08085918529813A81D0
:1014B000822B932B918780872394D5018C91AF81C8
:1014C000B885ED91FC912816B0F2D6018D919C91D2
:1014D000DC01AE0DBF1D0280F381E02D41E06C9177
:1014E0008F8198850995F60180819181DC01AE0D8F
:1014F000BF1DEF81F88580819181FC0120813181C0
:1015000040E06C918F819885F90109953394AB8106
:10151000BC818C913816E0F5E32CF12CF601A0810A
:10152000B181AE0DBF1DEF81F88580819181FC01F5
:101530002081318141E06C918F819885F901099575
:10154000F601A081B181AE0DBF1DEF81F8858081CC
:101550009181FC012281338140E06C918F819885DB
:10156000F9010995D301C201032C04C0880F991F0A
:10157000AA1FBB1F0A94D2F79A8389834C018094D7
:101580009094212C9ACF808591858821992192CFA2
:1015900028960FB6F894DEBF0FBECDBFDF91CF9176
:1015A0001F910F91FF90EF90DF90CF90BF90AF9081
:1015B0009F908F907F906F905F904F903F902F9073
:1015C0000895FC0180E090E0258D368D26173707C1
:1015D00039F0019636968A309105B1F78FEF9FEF7B
:1015E0000895DC0126E0629FA00DB11D11249096A4
:1015F0005C934E935F9721E091962C939197FC0119
:10160000E459FF4F208131960190F081E02D222393
:1016100031F0309749F0611107C0DC0102C030970A
:1016200019F05C968C9109940895CF92DF92EF9215
:10163000FF920F931F93CF93DF93EC01162F042F8C
:10164000FC0186E0689FE00DF11D112411A2878D39
:1016500090A181309105D1F048F08230910591F14F
:10166000039709F03FC040E050E030C04423D1F17F
:1016700041E050E0CE010E94F10A0E94AE0FC85A2C
:10168000DF4F688379838A839B832CC00E94AE0FCF
:10169000FE01E85AFF4FC080D180E280F380AB01A9
:1016A000BC014C195D096E097F0972968081918198
:1016B000A0E0B0E084179507A607B70718F442E04A
:1016C00050E004C001110EC043E050E0612FCE0194
:1016D000DF91CF911F910F91FF90EF90DF90CF900E
:1016E0000C94F10ADF91CF911F910F91FF90EF9031
:1016F000DF90CF9008952F923F924F925F926F921A
:101700007F928F929F92AF92BF92CF92DF92EF9291
:10171000FF920F931F93CF93DF9300D000D000D0A0
:10172000CDB7DEB79E838D837C015C012CE3A20ED6
:10173000B11CFC018FEF9FEF278D30A1232B21F4EB
:10174000148E968F858F11A23696AE16BF06A1F71E
:10175000512C8D819E818A599F4F9A838983AD81B7
:10176000BE81A959BF4FBC83AB836D807E80B0E63C
:101770006B0E711C86E0282EE981FA818081581653
:1017800008F05AC0412C0D811E81050D111D050D5B
:10179000111D085F1F4FAB81BC818C90481408F06D
:1017A00049C0F801C080D180042C02C0D694C794EF
:1017B0000A94E2F7FC2DF1703F2E589C4001112451
:1017C000840C911CB4018D819E810E94E10A97FDD9
:1017D00005C0432D682F8D819E8121C0019641F562
:1017E000C0FE26C0ED81FE8160E070E0848D811135
:1017F00019C0D301ED91FC91E80DF91D8081269E61
:10180000F001279EF00D11242D813E81E20FF31F80
:10181000848F968E858E10A2178E432DC9010E944B
:10182000150B06C06F5F7F4F36966A307105F1F673
:101830004394B1CF5394A0CF80E0D70191969C916F
:10184000911181E0B6E0EB0EF11CAE14BF04A9F7D4
:1018500026960FB6F894DEBF0FBECDBFDF91CF91B5
:101860001F910F91FF90EF90DF90CF90BF90AF90BE
:101870009F908F907F906F905F904F903F902F90B0
:101880000895CF92DF92EF92FF920F931F93CF9321
:10189000DF93EC010E94AE0F8E01045A1F4FF80136
:1018A000C080D180E280F380AB01BC014C195D099E
:1018B0006E097F093C9680819181A0E0B0E0841799
:1018C0009507A607B70778F4CE010E94E709CE0175
:1018D0000E947B0BC82F0E94AE0FF80160837183BA
:1018E0008283938301C0C0E08C2FDF91CF911F9141
:1018F0000F91FF90EF90DF90CF9008950F931F937B
:10190000CF93DF93EC018C0104591F4F81E0F80164
:101910008083CE010E94410C882349F089A188234D
:1019200031F08F8D98A1019711F48C8D03C0F801CF
:10193000108280E0DF91CF911F910F910895FC01FB
:1019400010821482138215820895FC011082118284
:1019500012826383448325830895CF93DF93EC0140
:10196000688170E08B810E947310698170E08C81C6
:101970000E9473106A8170E08D81DF91CF910C9489
:101980007310FB01208131814281FC01208331836E
:1019900042830C94AD0CFC01608341832283089543
:1019A000FC011082118212820895FC01918D228D1A
:1019B000892F90E0805C9F4F821B91098F7399273C
:1019C0000895FC01918D828D981731F0828DE80F7A
:1019D000F11D858D90E008958FEF9FEF0895FC0134
:1019E000918D828D981761F0828DDF01A80FB11D56
:1019F0005D968C91928D9F5F9F73928F90E008957A
:101A00008FEF9FEF0895FC01538D448D252F30E01B
:101A1000842F90E0821B930B541710F0CF960895FB
:101A2000019708958EE69EE0892B49F080E090E0D2
:101A3000892B29F00E946E0E81110C9400000895EC
:101A4000FC01848DDF01A80FB11DA35ABF4F2C915B
:101A5000848D90E001968F739927848FA689B7892A
:101A60002C93A089B1898C91837080648C93938D21
:101A7000848D981306C00288F389E02D80818F7DC4
:101A800080830895EF92FF920F931F93CF93DF937C
:101A9000EC0181E0888F9B8D8C8D981305C0E889BF
:101AA000F989808185FD26C0F62E0B8D10E00F5F31
:101AB0001F4F0F731127E02E8C8DE8120CC00FB64C
:101AC00007FCFACFE889F989808185FFF5CFCE013F
:101AD0000E94200DF1CF8B8DFE01E80FF11DE35A1E
:101AE000FF4FF0829FB7F8940B8FEA89FB898081C2
:101AF00080620AC09FB7F894EE89FF896083E88905
:101B0000F98980818370806480839FBF81E090E049
:101B1000DF91CF911F910F91FF90EF900895CF9398
:101B2000DF93EC01888D8823C9F0EA89FB898081E5
:101B300085FD05C0A889B9898C9186FD0FC00FB6B7
:101B400007FCF5CF808185FFF2CFA889B9898C91F8
:101B500085FFEDCFCE010E94200DE7CFDF91CF9121
:101B60000895CF92DF92EF92FF921F93CF93DF936E
:101B7000EC016A017B01122FE889F98982E08083F8
:101B80004115514E61057105B1F060E079E08DE3DA
:101B900090E0A70196010E949011DA01C901019716
:101BA000A109B109B695A795979587959C0121152F
:101BB00080E13807A8F0E889F989108260E874E8C4
:101BC0008EE190E0A70196010E949011DA01C9010F
:101BD0000197A109B109B695A795979587959C019D
:101BE000EC85FD853083EE85FF852083188EEC899A
:101BF000FD891083EA89FB89808180618083EA897D
:101C0000FB89808188608083EA89FB898081806884
:101C10008083EA89FB8980818F7D8083DF91CF91EA
:101C20001F91FF90EF90DF90CF9008951F920F9239
:101C30000FB60F9211242F938F939F93EF93FF93DF
:101C4000E0919602F09197028081E0919C02F091E0
:101C50009D0282FD12C0908180919F028F5F8F73E1
:101C60002091A002821751F0E0919F02F0E0EA5724
:101C7000FD4F958F80939F0201C08081FF91EF916E
:101C80009F918F912F910F900FBE0F901F901895DD
:101C90001F920F920FB60F9211242F933F934F93E1
:101CA0005F936F937F938F939F93AF93BF93EF93C4
:101CB000FF9386E892E00E94200DFF91EF91BF9183
:101CC000AF919F918F917F916F915F914F913F91D4
:101CD0002F910F900FBE0F901F90189586E892E0FD
:101CE0000E94D50C21E0892B09F420E0822F089571
:101CF000E6E8F2E01382128288EE93E0A0E0B0E022
:101D000084839583A683B78384E791E0918380835E
:101D100085EC90E09587848784EC90E097878687B0
:101D200080EC90E0918B808B81EC90E0938B828BA8
:101D300082EC90E0958B848B86EC90E0978B868B81
:101D4000118E128E138E148E0895CF92DF92EF9221
:101D5000FF920F931F93CF93DF936C017A018B0156
:101D6000C0E0D0E0CE15DF0581F0D8016D918D0186
:101D7000D601ED91FC910190F081E02DC60109950D
:101D8000892B11F02196EECF7E01C701DF91CF9113
:101D90001F910F91FF90EF90DF90CF9008950F93D8
:101DA0001F93CF93DF93EC010E94AE0F6887798772
:101DB0008A879B87E881F9810284F385E02DCE0133
:101DC000099597FF17C00E94AE0F088519852A85CF
:101DD0003B85DC01CB01801B910BA20BB30B0C816B
:101DE0001D812E813F8180179107A207B30710F351
:101DF0008FEF9FEFDF91CF911F910F910895FC011D
:101E000044835583668377830895CF92DF92EF9260
:101E1000FF920F931F93CF93DF936C017A018B0195
:101E2000C0E0D0E0CE15DF0559F0C6010E94CF0E0C
:101E300097FD05C0F80181938F012196F3CF7E01B4
:101E4000C701DF91CF911F910F91FF90EF90DF902D
:101E5000CF900895611571058105910511F00C94DD
:101E6000BD130895CF92DF92EF92FF926115710535
:101E70008105910549F06B017C010E946F13A70158
:101E800096010E94B21103C060E070E0CB01FF90A8
:101E9000EF90DF90CF90089508950E941B100E944C
:101EA0004C0F0E94EB00C2E1DDE00E94800320970E
:101EB000E1F30E94120DF9CF0C9403120C9403125B
:101EC0000C949B120C949B121F920F920FB60F92C0
:101ED00011242F933F938F939F93AF93BF93809140
:101EE000240390912503A0912603B09127033091FC
:101EF000230323E0230F2D3720F40196A11DB11DEC
:101F000005C026E8230F0296A11DB11D20932303CF
:101F10008093240390932503A0932603B093270373
:101F20008091280390912903A0912A03B0912B035B
:101F30000196A11DB11D8093280390932903A093BE
:101F40002A03B0932B03BF91AF919F918F913F9143
:101F50002F910F900FBE0F901F9018952FB7F894E8
:101F600060912403709125038091260390912703AB
:101F70002FBF08953FB7F8948091280390912903CB
:101F8000A0912A03B0912B0326B5A89B05C02F3F33
:101F900019F00196A11DB11D3FBFBA2FA92F982F8F
:101FA0008827820F911DA11DB11DBC01CD0142E00A
:101FB000660F771F881F991F4A95D1F708958F9252
:101FC0009F92AF92BF92CF92DF92EF92FF926B01FE
:101FD0007C010E94BA0F4B015C01C114D104E104E1
:101FE000F10401F10E948F110E94BA0FDC01CB01B4
:101FF00088199909AA09BB09883E9340A105B10532
:1020000060F321E0C21AD108E108F10888EE880ED9
:1020100083E0981EA11CB11CC114D104E104F10499
:1020200019F7DBCFFF90EF90DF90CF90BF90AF908C
:102030009F908F900895789484B5826084BD84B514
:10204000816084BD85B5826085BD85B5816085BDB3
:10205000EEE6F0E0808181608083E1E8F0E01082CC
:10206000808182608083808181608083E0E8F0E00D
:10207000808181608083E1EBF0E0808184608083F7
:10208000E0EBF0E0808181608083EAE7F0E080812E
:10209000846080838081826080838081816080838E
:1020A0008081806880831092C10008958E3008F08E
:1020B0008E502091140190E4299F90011124877083
:1020C000822B80937C0080917A00806480937A00D8
:1020D00080917A0086FDFCCF809178002091790074
:1020E00090E0922B08951F93CF93DF93182FEB016D
:1020F00061E00E94FB10209711F460E004C0CF3F24
:10210000D10539F461E0812FDF91CF911F910C94BB
:102110003711E12FF0E0E859FF4FE491E330F9F097
:1021200048F4E130B9F0E230A1F584B5806284BDB5
:10213000C8BD34C0E730E9F0E83019F1E43049F5C2
:1021400080918000806280938000D0938B00C09348
:102150008A0024C084B5806884BDC7BD1FC080913B
:102160008000806880938000D0938900C0938800AD
:1021700015C08091B00080688093B000C093B30018
:102180000DC08091B00080628093B000C093B40015
:1021900005C0C038D1050CF0B5CFAFCFDF91CF91DE
:1021A0001F910895833081F028F4813099F08230B6
:1021B000A1F008958730A9F08830B9F08430D1F4C7
:1021C000809180008F7D03C0809180008F77809305
:1021D0008000089584B58F7702C084B58F7D84BD5B
:1021E00008958091B0008F7703C08091B0008F7DFB
:1021F0008093B0000895CF93DF9390E0FC01E45802
:10220000FF4F2491FC01E057FF4F8491882361F137
:1022100090E0880F991FFC01E854FF4FC591D491BD
:10222000FC01E255FF4FA591B491611109C09FB720
:10223000F8948881209582238883EC912E230BC00B
:10224000623061F49FB7F8948881322F30958323F0
:102250008883EC912E2B2C939FBF06C08FB7F894E8
:10226000E8812E2B28838FBFDF91CF9108951F9394
:10227000CF93DF93282F30E0F901E859FF4F849185
:10228000F901E458FF4FD491F901E057FF4FC49191
:10229000CC23C1F0162F81110E94D210EC2FF0E058
:1022A000EE0FFF1FE255FF4FA591B4919FB7F89431
:1022B000111104C08C91D095D82302C0EC91DE2B73
:1022C000DC939FBFDF91CF911F910895CF93DF9350
:1022D000282F30E0F901E859FF4F8491F901E458C3
:1022E000FF4FD491F901E057FF4FC491CC2391F0F7
:1022F00081110E94D210EC2FF0E0EE0FFF1FEC5581
:10230000FF4FA591B491EC91ED2381E090E021F491
:1023100080E002C080E090E0DF91CF9108950895C1
:10232000A1E21A2EAA1BBB1BFD010DC0AA1FBB1FD9
:10233000EE1FFF1FA217B307E407F50720F0A21B4B
:10234000B30BE40BF50B661F771F881F991F1A94B8
:1023500069F760957095809590959B01AC01BD01E2
:10236000CF010895052E97FB1EF400940E94C91119
:1023700057FD07D00E94901107FC03D04EF40C9437
:10238000C91150954095309521953F4F4F4F5F4F64
:10239000089590958095709561957F4F8F4F9F4FD1
:1023A00008950E94F411A59F900DB49F900DA49FD5
:1023B000800D911D112408952A193B094C095D09CE
:1023C0006E097F09800B910B08952A153B054C057A
:1023D0005D056E057F05800791070895EE0FFF1FCD
:1023E0000590F491E02D0994A29FB001B39FC00124
:1023F000A39F700D811D1124911DB29F700D811D31
:102400001124911D08950F931F93CF93DF93823072
:10241000910510F482E090E0E0912E03F0912F03FB
:1024200020E030E0A0E0B0E0309719F14081518128
:102430000281138148175907C8F08417950769F47A
:10244000109731F012960C93129713961C9327C095
:1024500000932E0310932F0322C02115310519F08C
:102460004217530718F49A01BD01EF01DF01F8018B
:10247000DBCF21153105F9F0281B390B243031054C
:1024800080F48A819B816115710521F0FB019383A2
:10249000828304C090932F0380932E03FE01329613
:1024A00044C0FE01E20FF31F819391932250310942
:1024B000398328833AC020912C0330912D03232B9C
:1024C00041F4209102013091030130932D032093B8
:1024D0002C0320910001309101012115310541F4B7
:1024E0002DB73EB74091040150910501241B350BD7
:1024F000E0912C03F0912D03E217F307A0F42E1BBB
:102500003F0B2817390778F0AC014E5F5F4F241757
:10251000350748F04E0F5F1F50932D0340932C0357
:102520008193919302C0E0E0F0E0CF01DF91CF9181
:102530001F910F910895CF93DF93009709F481C005
:10254000FC01329713821282A0912E03B0912F03C7
:10255000109781F420813181820F931F20912C03E9
:1025600030912D032817390751F5F0932D03E0938F
:102570002C0367C0ED0120E030E0CE17DF0740F408
:102580004A815B819E0141155105F1F0EA01F5CFC9
:10259000D383C28340815181840F951FC817D90707
:1025A00059F488819981840F951F029691838083C5
:1025B0008A819B81938382832115310529F4F093CD
:1025C0002F03E0932E033DC0E901FB83EA83499189
:1025D0005991C40FD51FEC17FD0761F480819181DB
:1025E000840F951F0296E9019983888382819381E4
:1025F0009B838A83E0E0F0E012968D919C91139783
:10260000009719F0FD01DC01F7CF8D919C91119796
:102610009D012E5F3F4F820F931F20912C0330911D
:102620002D032817390769F4309729F410922F03E6
:1026300010922E0302C013821282B0932D03A09336
:102640002C03DF91CF9108958F929F92AF92BF920A
:10265000CF92DF92EF92FF92CF93DF93EC016881EC
:1026600079818A819B81611571058105910521F42C
:1026700064E279ED8BE597E02DE133EF41E050E046
:102680000E94B21149015A019B01AC01A7EAB1E4D1
:102690000E94D1116B017C01ACEEB4EFA501940155
:1026A0000E94C913DC01CB018C0D9D1DAE1DBF1D09
:1026B000B7FF03C00197A109B04888839983AA8313
:1026C000BB83BC01CD019F77DF91CF91FF90EF904D
:1026D000DF90CF90BF90AF909F908F9008958F9292
:1026E0009F92AF92BF92CF92DF92EF92FF92609152
:1026F000060170910701809108019091090161150F
:1027000071058105910521F464E279ED8BE597E08F
:102710002DE133EF41E050E00E94B21149015A012E
:102720009B01AC01A7EAB1E40E94D1116B017C01CD
:10273000ACEEB4EFA50194010E94C913DC01CB01FA
:102740008C0D9D1DAE1DBF1DB7FF03C00197A109D4
:10275000B0488093060190930701A0930801B093BD
:102760000901BC01CD019F77FF90EF90DF90CF90E2
:10277000BF90AF909F908F900895609306017093E3
:10278000070180930801909309010895B7FF0C9405
:10279000D1110E94D111821B930B0895F999FECF9C
:1027A00092BD81BDF89A992780B50895262FF99991
:1027B000FECF1FBA92BD81BD20BD0FB6F894FA9A24
:1027C000F99A0FBE0196089510E0C3E6D0E004C068
:1027D000FE010E94EE112196C436D107C9F7F89484
:0227E000FFCF29
:1027E2000000300380000100000007080C0E0F02F9
:1027F2000304050601292A2B2C2D2E232425262706
:10280200281D1E1F202122505152535459414C441D
:1028120043474D4B484645421213141516171819D3
:102822001A1B1C0102030405060708090A41424358
:102832004445464748494A4B4C4D4E4F50515253DE
:1028420054554F4E585900000000860982097F09ED
:1028520000000000420DA50E030D8F0DD50CEF0CEC
:02286200E10C87
:00000001FF
